{
  "contractName": "SmartBet",
  "abi": [
    {
      "anonymous": false,
      "inputs": [
        {
          "indexed": true,
          "internalType": "uint256",
          "name": "betId",
          "type": "uint256"
        },
        {
          "indexed": true,
          "internalType": "address",
          "name": "gambler",
          "type": "address"
        },
        {
          "indexed": false,
          "internalType": "uint256",
          "name": "amount",
          "type": "uint256"
        }
      ],
      "name": "AddBetGambler",
      "type": "event"
    },
    {
      "anonymous": false,
      "inputs": [
        {
          "indexed": true,
          "internalType": "uint256",
          "name": "betId",
          "type": "uint256"
        },
        {
          "indexed": true,
          "internalType": "address",
          "name": "sponsor",
          "type": "address"
        },
        {
          "indexed": false,
          "internalType": "uint256",
          "name": "amount",
          "type": "uint256"
        }
      ],
      "name": "AddBetSponsor",
      "type": "event"
    },
    {
      "anonymous": false,
      "inputs": [
        {
          "indexed": true,
          "internalType": "address",
          "name": "owner",
          "type": "address"
        },
        {
          "indexed": true,
          "internalType": "uint256",
          "name": "betIndex",
          "type": "uint256"
        }
      ],
      "name": "CloseBet",
      "type": "event"
    },
    {
      "anonymous": false,
      "inputs": [
        {
          "indexed": true,
          "internalType": "address",
          "name": "owner",
          "type": "address"
        },
        {
          "indexed": true,
          "internalType": "uint256",
          "name": "betIndex",
          "type": "uint256"
        }
      ],
      "name": "CountingVotesBet",
      "type": "event"
    },
    {
      "anonymous": false,
      "inputs": [
        {
          "indexed": true,
          "internalType": "uint256",
          "name": "betId",
          "type": "uint256"
        },
        {
          "indexed": false,
          "internalType": "string",
          "name": "LocalTeam",
          "type": "string"
        },
        {
          "indexed": false,
          "internalType": "string",
          "name": "VisitorTeam",
          "type": "string"
        },
        {
          "indexed": true,
          "internalType": "address",
          "name": "owner",
          "type": "address"
        }
      ],
      "name": "CreateBet",
      "type": "event"
    },
    {
      "anonymous": false,
      "inputs": [
        {
          "indexed": true,
          "internalType": "address",
          "name": "sender",
          "type": "address"
        },
        {
          "indexed": false,
          "internalType": "uint256",
          "name": "amount",
          "type": "uint256"
        },
        {
          "indexed": false,
          "internalType": "uint256",
          "name": "balance",
          "type": "uint256"
        }
      ],
      "name": "Deposit",
      "type": "event"
    },
    {
      "anonymous": false,
      "inputs": [
        {
          "indexed": true,
          "internalType": "address",
          "name": "owner",
          "type": "address"
        },
        {
          "indexed": true,
          "internalType": "uint256",
          "name": "betIndex",
          "type": "uint256"
        }
      ],
      "name": "FinishedBet",
      "type": "event"
    },
    {
      "anonymous": false,
      "inputs": [
        {
          "indexed": false,
          "internalType": "address",
          "name": "gamblerAddress",
          "type": "address"
        },
        {
          "indexed": false,
          "internalType": "uint256",
          "name": "price",
          "type": "uint256"
        }
      ],
      "name": "GamblerPayment",
      "type": "event"
    },
    {
      "anonymous": false,
      "inputs": [
        {
          "indexed": true,
          "internalType": "address",
          "name": "owner",
          "type": "address"
        },
        {
          "indexed": true,
          "internalType": "uint256",
          "name": "betIndex",
          "type": "uint256"
        }
      ],
      "name": "OpenBet",
      "type": "event"
    },
    {
      "anonymous": false,
      "inputs": [
        {
          "indexed": true,
          "internalType": "address",
          "name": "previousOwner",
          "type": "address"
        },
        {
          "indexed": true,
          "internalType": "address",
          "name": "newOwner",
          "type": "address"
        }
      ],
      "name": "OwnershipTransferred",
      "type": "event"
    },
    {
      "anonymous": false,
      "inputs": [
        {
          "indexed": true,
          "internalType": "address",
          "name": "owner",
          "type": "address"
        },
        {
          "indexed": true,
          "internalType": "uint256",
          "name": "betIndex",
          "type": "uint256"
        }
      ],
      "name": "ReadyForPaymentBet",
      "type": "event"
    },
    {
      "anonymous": false,
      "inputs": [
        {
          "indexed": true,
          "internalType": "address",
          "name": "owner",
          "type": "address"
        },
        {
          "indexed": true,
          "internalType": "uint256",
          "name": "betIndex",
          "type": "uint256"
        }
      ],
      "name": "ResultsReadyBet",
      "type": "event"
    },
    {
      "anonymous": false,
      "inputs": [
        {
          "indexed": false,
          "internalType": "address",
          "name": "sponsorAddress",
          "type": "address"
        },
        {
          "indexed": false,
          "internalType": "uint256",
          "name": "price",
          "type": "uint256"
        }
      ],
      "name": "SponsorPayment",
      "type": "event"
    },
    {
      "inputs": [
        {
          "internalType": "uint256",
          "name": "",
          "type": "uint256"
        }
      ],
      "name": "betBook",
      "outputs": [
        {
          "internalType": "uint256",
          "name": "betId",
          "type": "uint256"
        },
        {
          "internalType": "string",
          "name": "localTeam",
          "type": "string"
        },
        {
          "internalType": "string",
          "name": "visitorTeam",
          "type": "string"
        },
        {
          "internalType": "enum SmartBet.BetStates",
          "name": "state",
          "type": "uint8"
        },
        {
          "internalType": "enum SmartBet.BetResults",
          "name": "results",
          "type": "uint8"
        },
        {
          "internalType": "uint256",
          "name": "sponsorsCount",
          "type": "uint256"
        },
        {
          "internalType": "uint256",
          "name": "gamblersCount",
          "type": "uint256"
        },
        {
          "internalType": "uint256",
          "name": "winnersCount",
          "type": "uint256"
        },
        {
          "internalType": "uint256",
          "name": "initialAmount",
          "type": "uint256"
        },
        {
          "internalType": "uint256",
          "name": "localWiningAmount",
          "type": "uint256"
        },
        {
          "internalType": "uint256",
          "name": "visitorWiningAmount",
          "type": "uint256"
        },
        {
          "internalType": "uint256",
          "name": "drawnAmount",
          "type": "uint256"
        }
      ],
      "stateMutability": "view",
      "type": "function",
      "constant": true
    },
    {
      "inputs": [
        {
          "internalType": "uint256",
          "name": "",
          "type": "uint256"
        },
        {
          "internalType": "uint256",
          "name": "",
          "type": "uint256"
        }
      ],
      "name": "betGamblers",
      "outputs": [
        {
          "internalType": "address payable",
          "name": "gamblerAccount",
          "type": "address"
        },
        {
          "internalType": "enum SmartBet.BetOptions",
          "name": "betOption",
          "type": "uint8"
        },
        {
          "internalType": "uint256",
          "name": "betAmount",
          "type": "uint256"
        },
        {
          "internalType": "uint256",
          "name": "betRewardPayment",
          "type": "uint256"
        }
      ],
      "stateMutability": "view",
      "type": "function",
      "constant": true
    },
    {
      "inputs": [
        {
          "internalType": "uint256",
          "name": "",
          "type": "uint256"
        },
        {
          "internalType": "uint256",
          "name": "",
          "type": "uint256"
        }
      ],
      "name": "betSponsors",
      "outputs": [
        {
          "internalType": "address payable",
          "name": "sponsorAccount",
          "type": "address"
        },
        {
          "internalType": "uint256",
          "name": "sponsorAmount",
          "type": "uint256"
        },
        {
          "internalType": "uint256",
          "name": "sponsorFeeAmount",
          "type": "uint256"
        },
        {
          "internalType": "enum SmartBet.BetResults",
          "name": "result",
          "type": "uint8"
        }
      ],
      "stateMutability": "view",
      "type": "function",
      "constant": true
    },
    {
      "inputs": [],
      "name": "owner",
      "outputs": [
        {
          "internalType": "address",
          "name": "",
          "type": "address"
        }
      ],
      "stateMutability": "view",
      "type": "function",
      "constant": true
    },
    {
      "inputs": [],
      "name": "renounceOwnership",
      "outputs": [],
      "stateMutability": "nonpayable",
      "type": "function"
    },
    {
      "inputs": [
        {
          "internalType": "address",
          "name": "newOwner",
          "type": "address"
        }
      ],
      "name": "transferOwnership",
      "outputs": [],
      "stateMutability": "nonpayable",
      "type": "function"
    },
    {
      "stateMutability": "payable",
      "type": "receive",
      "payable": true
    },
    {
      "inputs": [
        {
          "internalType": "string",
          "name": "_localTeam",
          "type": "string"
        },
        {
          "internalType": "string",
          "name": "_visitorTeam",
          "type": "string"
        }
      ],
      "name": "createBet",
      "outputs": [
        {
          "internalType": "uint256",
          "name": "betId",
          "type": "uint256"
        }
      ],
      "stateMutability": "nonpayable",
      "type": "function"
    },
    {
      "inputs": [
        {
          "internalType": "uint256",
          "name": "_betIndex",
          "type": "uint256"
        }
      ],
      "name": "addBetSponsor",
      "outputs": [],
      "stateMutability": "payable",
      "type": "function",
      "payable": true
    },
    {
      "inputs": [
        {
          "internalType": "uint256",
          "name": "_betIndex",
          "type": "uint256"
        },
        {
          "internalType": "enum SmartBet.BetOptions",
          "name": "_gamblerBetoption",
          "type": "uint8"
        }
      ],
      "name": "addGamblerBet",
      "outputs": [],
      "stateMutability": "payable",
      "type": "function",
      "payable": true
    },
    {
      "inputs": [
        {
          "internalType": "uint256",
          "name": "_betIndex",
          "type": "uint256"
        }
      ],
      "name": "closeBet",
      "outputs": [],
      "stateMutability": "nonpayable",
      "type": "function"
    },
    {
      "inputs": [
        {
          "internalType": "uint256",
          "name": "_betIndex",
          "type": "uint256"
        },
        {
          "internalType": "enum SmartBet.BetResults",
          "name": "resultado",
          "type": "uint8"
        }
      ],
      "name": "defineResult",
      "outputs": [],
      "stateMutability": "nonpayable",
      "type": "function"
    },
    {
      "inputs": [
        {
          "internalType": "uint256",
          "name": "_betIndex",
          "type": "uint256"
        }
      ],
      "name": "calcPayments",
      "outputs": [],
      "stateMutability": "nonpayable",
      "type": "function"
    },
    {
      "inputs": [
        {
          "internalType": "uint256",
          "name": "_betIndex",
          "type": "uint256"
        }
      ],
      "name": "releasePayments",
      "outputs": [],
      "stateMutability": "nonpayable",
      "type": "function"
    },
    {
      "inputs": [],
      "name": "getAvailableBets",
      "outputs": [
        {
          "components": [
            {
              "internalType": "uint256",
              "name": "betId",
              "type": "uint256"
            },
            {
              "internalType": "string",
              "name": "localTeam",
              "type": "string"
            },
            {
              "internalType": "string",
              "name": "visitorTeam",
              "type": "string"
            },
            {
              "internalType": "enum SmartBet.BetStates",
              "name": "state",
              "type": "uint8"
            },
            {
              "internalType": "enum SmartBet.BetResults",
              "name": "results",
              "type": "uint8"
            },
            {
              "internalType": "uint256",
              "name": "sponsorsCount",
              "type": "uint256"
            },
            {
              "internalType": "uint256",
              "name": "gamblersCount",
              "type": "uint256"
            },
            {
              "internalType": "uint256",
              "name": "winnersCount",
              "type": "uint256"
            },
            {
              "internalType": "uint256",
              "name": "initialAmount",
              "type": "uint256"
            },
            {
              "internalType": "uint256",
              "name": "localWiningAmount",
              "type": "uint256"
            },
            {
              "internalType": "uint256",
              "name": "visitorWiningAmount",
              "type": "uint256"
            },
            {
              "internalType": "uint256",
              "name": "drawnAmount",
              "type": "uint256"
            }
          ],
          "internalType": "struct SmartBet.BetDefinition[]",
          "name": "availableBets",
          "type": "tuple[]"
        }
      ],
      "stateMutability": "view",
      "type": "function",
      "constant": true
    },
    {
      "inputs": [
        {
          "internalType": "uint256",
          "name": "_betIndex",
          "type": "uint256"
        }
      ],
      "name": "getGamblers",
      "outputs": [
        {
          "components": [
            {
              "internalType": "address payable",
              "name": "gamblerAccount",
              "type": "address"
            },
            {
              "internalType": "enum SmartBet.BetOptions",
              "name": "betOption",
              "type": "uint8"
            },
            {
              "internalType": "uint256",
              "name": "betAmount",
              "type": "uint256"
            },
            {
              "internalType": "uint256",
              "name": "betRewardPayment",
              "type": "uint256"
            }
          ],
          "internalType": "struct SmartBet.Gambler[]",
          "name": "gamblers",
          "type": "tuple[]"
        }
      ],
      "stateMutability": "view",
      "type": "function",
      "constant": true
    },
    {
      "inputs": [
        {
          "internalType": "uint256",
          "name": "_betIndex",
          "type": "uint256"
        }
      ],
      "name": "getSponsors",
      "outputs": [
        {
          "components": [
            {
              "internalType": "address payable",
              "name": "sponsorAccount",
              "type": "address"
            },
            {
              "internalType": "uint256",
              "name": "sponsorAmount",
              "type": "uint256"
            },
            {
              "internalType": "uint256",
              "name": "sponsorFeeAmount",
              "type": "uint256"
            },
            {
              "internalType": "enum SmartBet.BetResults",
              "name": "result",
              "type": "uint8"
            }
          ],
          "internalType": "struct SmartBet.Sponsor[]",
          "name": "sponsor",
          "type": "tuple[]"
        }
      ],
      "stateMutability": "view",
      "type": "function",
      "constant": true
    },
    {
      "inputs": [
        {
          "internalType": "uint256",
          "name": "betIndex",
          "type": "uint256"
        }
      ],
      "name": "getBetSummary",
      "outputs": [
        {
          "internalType": "string",
          "name": "local",
          "type": "string"
        },
        {
          "internalType": "string",
          "name": "visitor",
          "type": "string"
        },
        {
          "internalType": "enum SmartBet.BetStates",
          "name": "state",
          "type": "uint8"
        },
        {
          "internalType": "enum SmartBet.BetResults",
          "name": "results",
          "type": "uint8"
        },
        {
          "internalType": "uint256",
          "name": "sponsorsCount",
          "type": "uint256"
        },
        {
          "internalType": "uint256",
          "name": "gamblersCount",
          "type": "uint256"
        },
        {
          "internalType": "uint256",
          "name": "winnersCount",
          "type": "uint256"
        },
        {
          "internalType": "uint256",
          "name": "initialAmount",
          "type": "uint256"
        },
        {
          "internalType": "uint256",
          "name": "localWiningAmount",
          "type": "uint256"
        },
        {
          "internalType": "uint256",
          "name": "visitorWiningAmount",
          "type": "uint256"
        },
        {
          "internalType": "uint256",
          "name": "drawnAmount",
          "type": "uint256"
        }
      ],
      "stateMutability": "view",
      "type": "function",
      "constant": true
    },
    {
      "inputs": [
        {
          "internalType": "uint256",
          "name": "_betIndex",
          "type": "uint256"
        },
        {
          "internalType": "uint256",
          "name": "_sponsorId",
          "type": "uint256"
        }
      ],
      "name": "getSponsor",
      "outputs": [
        {
          "internalType": "address",
          "name": "sponsorAccount",
          "type": "address"
        }
      ],
      "stateMutability": "view",
      "type": "function",
      "constant": true
    },
    {
      "inputs": [
        {
          "internalType": "uint256",
          "name": "_betIndex",
          "type": "uint256"
        },
        {
          "internalType": "uint256",
          "name": "_gamblerId",
          "type": "uint256"
        }
      ],
      "name": "getGambler",
      "outputs": [
        {
          "internalType": "address",
          "name": "gamblerAccount",
          "type": "address"
        },
        {
          "internalType": "enum SmartBet.BetOptions",
          "name": "betOption",
          "type": "uint8"
        },
        {
          "internalType": "uint256",
          "name": "betAmount",
          "type": "uint256"
        },
        {
          "internalType": "uint256",
          "name": "betRewardPayment",
          "type": "uint256"
        }
      ],
      "stateMutability": "view",
      "type": "function",
      "constant": true
    }
  ],
  "bytecode": "0x608060405260028055640ba43b74006003556402540be4006004556005805560056006553480156200003057600080fd5b5062000051620000456200005e60201b60201c565b6200006660201b60201c565b600180819055506200012a565b600033905090565b60008060009054906101000a900473ffffffffffffffffffffffffffffffffffffffff169050816000806101000a81548173ffffffffffffffffffffffffffffffffffffffff021916908373ffffffffffffffffffffffffffffffffffffffff1602179055508173ffffffffffffffffffffffffffffffffffffffff168173ffffffffffffffffffffffffffffffffffffffff167f8be0079c531659141344cd1fd0a4f28419497f9722a3daafe3b4186f6b6457e060405160405180910390a35050565b615142806200013a6000396000f3fe6080604052600436106101185760003560e01c80638e48067a116100a0578063bb1c5bfa11610064578063bb1c5bfa14610452578063c54d1d7c1461047b578063ca3e4b49146104bb578063dbb91a1c146104e4578063f2fde38b146105005761016f565b80638e48067a1461033a5780639a7b891814610381578063a24beff7146103ac578063a56fde9f146103d5578063ba450ab4146104155761016f565b80634de067f2116100e75780634de067f214610236578063715018a61461027357806386e9b9c11461028a578063894bab8e146102c75780638da5cb5b1461030f5761016f565b80632f6051061461017457806344c34cb3146101b15780634a4184d2146101cd5780634d360fc6146101f65761016f565b3661016f573373ffffffffffffffffffffffffffffffffffffffff167f90890809c654f11d6e72a28fa60149770a0d11ec6c92319d6ceb2bb0a4ea1a153447604051610165929190614994565b60405180910390a2005b600080fd5b34801561018057600080fd5b5061019b60048036038101906101969190613f29565b610529565b6040516101a89190614528565b60405180910390f35b6101cb60048036038101906101c69190613eb1565b6105b0565b005b3480156101d957600080fd5b506101f460048036038101906101ef9190613e88565b610dba565b005b34801561020257600080fd5b5061021d60048036038101906102189190613f29565b6113d8565b60405161022d94939291906145b1565b60405180910390f35b34801561024257600080fd5b5061025d60048036038101906102589190613e1c565b611452565b60405161026a91906148b1565b60405180910390f35b34801561027f57600080fd5b50610288611767565b005b34801561029657600080fd5b506102b160048036038101906102ac9190613e88565b6117ef565b6040516102be919061465d565b60405180910390f35b3480156102d357600080fd5b506102ee60048036038101906102e99190613e88565b611952565b6040516103069c9b9a999897969594939291906148cc565b60405180910390f35b34801561031b57600080fd5b50610324611aec565b6040516103319190614528565b60405180910390f35b34801561034657600080fd5b50610361600480360381019061035c9190613e88565b611b15565b6040516103789b9a999897969594939291906146d8565b60405180910390f35b34801561038d57600080fd5b50610396611cfe565b6040516103a3919061463b565b60405180910390f35b3480156103b857600080fd5b506103d360048036038101906103ce9190613e88565b611fe0565b005b3480156103e157600080fd5b506103fc60048036038101906103f79190613f29565b61225b565b60405161040c9493929190614543565b60405180910390f35b34801561042157600080fd5b5061043c60048036038101906104379190613e88565b6122d5565b604051610449919061467f565b60405180910390f35b34801561045e57600080fd5b5061047960048036038101906104749190613eed565b612438565b005b34801561048757600080fd5b506104a2600480360381019061049d9190613f29565b612748565b6040516104b294939291906145f6565b60405180910390f35b3480156104c757600080fd5b506104e260048036038101906104dd9190613e88565b6128cd565b005b6104fe60048036038101906104f99190613e88565b61350d565b005b34801561050c57600080fd5b5061052760048036038101906105229190613df3565b613aba565b005b6000600860008481526020019081526020016000208281548110610576577f4e487b7100000000000000000000000000000000000000000000000000000000600052603260045260246000fd5b906000526020600020906004020160000160009054906101000a900473ffffffffffffffffffffffffffffffffffffffff16905092915050565b8160078054905081106105f8576040517f08c379a00000000000000000000000000000000000000000000000000000000081526004016105ef906147f1565b60405180910390fd5b6002600154141561063e576040517f08c379a000000000000000000000000000000000000000000000000000000000815260040161063590614891565b60405180910390fd5b600260018190555060026006811115610680577f4e487b7100000000000000000000000000000000000000000000000000000000600052602160045260246000fd5b600784815481106106ba577f4e487b7100000000000000000000000000000000000000000000000000000000600052603260045260246000fd5b90600052602060002090600b020160030160009054906101000a900460ff166006811115610711577f4e487b7100000000000000000000000000000000000000000000000000000000600052602160045260246000fd5b1461071b57600080fd5b600454341161072957600080fd5b60006002811115610763577f4e487b7100000000000000000000000000000000000000000000000000000000600052602160045260246000fd5b82600281111561079c577f4e487b7100000000000000000000000000000000000000000000000000000000600052602160045260246000fd5b14806108185750600160028111156107dd577f4e487b7100000000000000000000000000000000000000000000000000000000600052602160045260246000fd5b826002811115610816577f4e487b7100000000000000000000000000000000000000000000000000000000600052602160045260246000fd5b145b806108925750600280811115610857577f4e487b7100000000000000000000000000000000000000000000000000000000600052602160045260246000fd5b826002811115610890577f4e487b7100000000000000000000000000000000000000000000000000000000600052602160045260246000fd5b145b61089b57600080fd5b6009600084815260200190815260200160002060405180608001604052803373ffffffffffffffffffffffffffffffffffffffff16815260200184600281111561090e577f4e487b7100000000000000000000000000000000000000000000000000000000600052602160045260246000fd5b81526020013481526020016000815250908060018154018082558091505060019003906000526020600020906003020160009091909190915060008201518160000160006101000a81548173ffffffffffffffffffffffffffffffffffffffff021916908373ffffffffffffffffffffffffffffffffffffffff16021790555060208201518160000160146101000a81548160ff021916908360028111156109df577f4e487b7100000000000000000000000000000000000000000000000000000000600052602160045260246000fd5b02179055506040820151816001015560608201518160020155505060006002811115610a34577f4e487b7100000000000000000000000000000000000000000000000000000000600052602160045260246000fd5b826002811115610a6d577f4e487b7100000000000000000000000000000000000000000000000000000000600052602160045260246000fd5b1415610ada573460078481548110610aae577f4e487b7100000000000000000000000000000000000000000000000000000000600052603260045260246000fd5b90600052602060002090600b02016008016000828254610ace9190614af6565b92505081905550610cfe565b60016002811115610b14577f4e487b7100000000000000000000000000000000000000000000000000000000600052602160045260246000fd5b826002811115610b4d577f4e487b7100000000000000000000000000000000000000000000000000000000600052602160045260246000fd5b1415610bba573460078481548110610b8e577f4e487b7100000000000000000000000000000000000000000000000000000000600052603260045260246000fd5b90600052602060002090600b02016009016000828254610bae9190614af6565b92505081905550610cfd565b600280811115610bf3577f4e487b7100000000000000000000000000000000000000000000000000000000600052602160045260246000fd5b826002811115610c2c577f4e487b7100000000000000000000000000000000000000000000000000000000600052602160045260246000fd5b1415610c99573460078481548110610c6d577f4e487b7100000000000000000000000000000000000000000000000000000000600052603260045260246000fd5b90600052602060002090600b0201600a016000828254610c8d9190614af6565b92505081905550610cfc565b3460078481548110610cd4577f4e487b7100000000000000000000000000000000000000000000000000000000600052603260045260246000fd5b90600052602060002090600b02016007016000828254610cf49190614af6565b925050819055505b5b5b60078381548110610d38577f4e487b7100000000000000000000000000000000000000000000000000000000600052603260045260246000fd5b90600052602060002090600b02016005016000815480929190610d5a90614da3565b91905055503373ffffffffffffffffffffffffffffffffffffffff16837fb1ca661842f3a476b04198de85e5139d783f4641972c46ace555065213fb0e4934604051610da691906148b1565b60405180910390a360018081905550505050565b610dc2613bb2565b73ffffffffffffffffffffffffffffffffffffffff16610de0611aec565b73ffffffffffffffffffffffffffffffffffffffff1614610e36576040517f08c379a0000000000000000000000000000000000000000000000000000000008152600401610e2d90614811565b60405180910390fd5b806007805490508110610e7e576040517f08c379a0000000000000000000000000000000000000000000000000000000008152600401610e75906147f1565b60405180910390fd5b60026001541415610ec4576040517f08c379a0000000000000000000000000000000000000000000000000000000008152600401610ebb90614891565b60405180910390fd5b600260018190555060056006811115610f06577f4e487b7100000000000000000000000000000000000000000000000000000000600052602160045260246000fd5b60078381548110610f40577f4e487b7100000000000000000000000000000000000000000000000000000000600052603260045260246000fd5b90600052602060002090600b020160030160009054906101000a900460ff166006811115610f97577f4e487b7100000000000000000000000000000000000000000000000000000000600052602160045260246000fd5b14610fa157600080fd5b60005b600960008481526020019081526020016000208054905081101561116957600060096000858152602001908152602001600020828154811061100f577f4e487b7100000000000000000000000000000000000000000000000000000000600052603260045260246000fd5b9060005260206000209060030201905060008160000160009054906101000a900473ffffffffffffffffffffffffffffffffffffffff1673ffffffffffffffffffffffffffffffffffffffff16826002015460405161106d90614513565b60006040518083038185875af1925050503d80600081146110aa576040519150601f19603f3d011682016040523d82523d6000602084013e6110af565b606091505b50509050806110f3576040517f08c379a00000000000000000000000000000000000000000000000000000000081526004016110ea906147d1565b60405180910390fd5b7fc9391512f74f8d39a93623f46b1533e7fc3d0db19060f2c7d399357cbf04728d8260000160009054906101000a900473ffffffffffffffffffffffffffffffffffffffff16836002015460405161114c929190614588565b60405180910390a15050808061116190614da3565b915050610fa4565b5060005b60086000848152602001908152602001600020805490508110156113325760006008600085815260200190815260200160002082815481106111d8577f4e487b7100000000000000000000000000000000000000000000000000000000600052603260045260246000fd5b9060005260206000209060040201905060008160000160009054906101000a900473ffffffffffffffffffffffffffffffffffffffff1673ffffffffffffffffffffffffffffffffffffffff16826002015460405161123690614513565b60006040518083038185875af1925050503d8060008114611273576040519150601f19603f3d011682016040523d82523d6000602084013e611278565b606091505b50509050806112bc576040517f08c379a00000000000000000000000000000000000000000000000000000000081526004016112b390614871565b60405180910390fd5b7fe2393f8d74620a001173513e26da37937a271bbd265093712fd1a2ef7f44e6088260000160009054906101000a900473ffffffffffffffffffffffffffffffffffffffff168360020154604051611315929190614588565b60405180910390a15050808061132a90614da3565b91505061116d565b5060066007838154811061136f577f4e487b7100000000000000000000000000000000000000000000000000000000600052603260045260246000fd5b90600052602060002090600b020160030160006101000a81548160ff021916908360068111156113c8577f4e487b7100000000000000000000000000000000000000000000000000000000600052602160045260246000fd5b0217905550600180819055505050565b600860205281600052604060002081815481106113f457600080fd5b9060005260206000209060040201600091509150508060000160009054906101000a900473ffffffffffffffffffffffffffffffffffffffff16908060010154908060020154908060030160009054906101000a900460ff16905084565b600061145c613bb2565b73ffffffffffffffffffffffffffffffffffffffff1661147a611aec565b73ffffffffffffffffffffffffffffffffffffffff16146114d0576040517f08c379a00000000000000000000000000000000000000000000000000000000081526004016114c790614811565b60405180910390fd5b60006007805490509050600760405180610180016040528083815260200186815260200185815260200160006006811115611534577f4e487b7100000000000000000000000000000000000000000000000000000000600052602160045260246000fd5b815260200160006004811115611573577f4e487b7100000000000000000000000000000000000000000000000000000000600052602160045260246000fd5b8152602001600081526020016000815260200160008152602001600081526020016000815260200160008152602001600081525090806001815401808255809150506001900390600052602060002090600b02016000909190919091506000820151816000015560208201518160010190805190602001906115f6929190613c94565b506040820151816002019080519060200190611613929190613c94565b5060608201518160030160006101000a81548160ff02191690836006811115611665577f4e487b7100000000000000000000000000000000000000000000000000000000600052602160045260246000fd5b021790555060808201518160030160016101000a81548160ff021916908360048111156116bb577f4e487b7100000000000000000000000000000000000000000000000000000000600052602160045260246000fd5b021790555060a0820151816004015560c0820151816005015560e0820151816006015561010082015181600701556101208201518160080155610140820151816009015561016082015181600a015550503373ffffffffffffffffffffffffffffffffffffffff16817f7cd3a8417d243d7fc4ac82af9862ac616fba5c7607d4b3ec1b3863b928bfc33e86866040516117559291906146a1565b60405180910390a38091505092915050565b61176f613bb2565b73ffffffffffffffffffffffffffffffffffffffff1661178d611aec565b73ffffffffffffffffffffffffffffffffffffffff16146117e3576040517f08c379a00000000000000000000000000000000000000000000000000000000081526004016117da90614811565b60405180910390fd5b6117ed6000613bba565b565b606060096000838152602001908152602001600020805480602002602001604051908101604052809291908181526020016000905b8282101561194757838290600052602060002090600302016040518060800160405290816000820160009054906101000a900473ffffffffffffffffffffffffffffffffffffffff1673ffffffffffffffffffffffffffffffffffffffff1673ffffffffffffffffffffffffffffffffffffffff1681526020016000820160149054906101000a900460ff1660028111156118e8577f4e487b7100000000000000000000000000000000000000000000000000000000600052602160045260246000fd5b6002811115611920577f4e487b7100000000000000000000000000000000000000000000000000000000600052602160045260246000fd5b81526020016001820154815260200160028201548152505081526020019060010190611824565b505050509050919050565b6007818154811061196257600080fd5b90600052602060002090600b020160009150905080600001549080600101805461198b90614d40565b80601f01602080910402602001604051908101604052809291908181526020018280546119b790614d40565b8015611a045780601f106119d957610100808354040283529160200191611a04565b820191906000526020600020905b8154815290600101906020018083116119e757829003601f168201915b505050505090806002018054611a1990614d40565b80601f0160208091040260200160405190810160405280929190818152602001828054611a4590614d40565b8015611a925780601f10611a6757610100808354040283529160200191611a92565b820191906000526020600020905b815481529060010190602001808311611a7557829003601f168201915b5050505050908060030160009054906101000a900460ff16908060030160019054906101000a900460ff169080600401549080600501549080600601549080600701549080600801549080600901549080600a015490508c565b60008060009054906101000a900473ffffffffffffffffffffffffffffffffffffffff16905090565b60608060008060008060008060008060008060078d81548110611b61577f4e487b7100000000000000000000000000000000000000000000000000000000600052603260045260246000fd5b90600052602060002090600b0201905080600101816002018260030160009054906101000a900460ff168360030160019054906101000a900460ff168460040154856005015486600601548760070154886008015489600901548a600a01548a8054611bcc90614d40565b80601f0160208091040260200160405190810160405280929190818152602001828054611bf890614d40565b8015611c455780601f10611c1a57610100808354040283529160200191611c45565b820191906000526020600020905b815481529060010190602001808311611c2857829003601f168201915b50505050509a50898054611c5890614d40565b80601f0160208091040260200160405190810160405280929190818152602001828054611c8490614d40565b8015611cd15780601f10611ca657610100808354040283529160200191611cd1565b820191906000526020600020905b815481529060010190602001808311611cb457829003601f168201915b505050505099509b509b509b509b509b509b509b509b509b509b509b505091939597999b90929496989a50565b60606007805480602002602001604051908101604052809291908181526020016000905b82821015611fd757838290600052602060002090600b02016040518061018001604052908160008201548152602001600182018054611d6090614d40565b80601f0160208091040260200160405190810160405280929190818152602001828054611d8c90614d40565b8015611dd95780601f10611dae57610100808354040283529160200191611dd9565b820191906000526020600020905b815481529060010190602001808311611dbc57829003601f168201915b50505050508152602001600282018054611df290614d40565b80601f0160208091040260200160405190810160405280929190818152602001828054611e1e90614d40565b8015611e6b5780601f10611e4057610100808354040283529160200191611e6b565b820191906000526020600020905b815481529060010190602001808311611e4e57829003601f168201915b505050505081526020016003820160009054906101000a900460ff166006811115611ebf577f4e487b7100000000000000000000000000000000000000000000000000000000600052602160045260246000fd5b6006811115611ef7577f4e487b7100000000000000000000000000000000000000000000000000000000600052602160045260246000fd5b81526020016003820160019054906101000a900460ff166004811115611f46577f4e487b7100000000000000000000000000000000000000000000000000000000600052602160045260246000fd5b6004811115611f7e577f4e487b7100000000000000000000000000000000000000000000000000000000600052602160045260246000fd5b8152602001600482015481526020016005820154815260200160068201548152602001600782015481526020016008820154815260200160098201548152602001600a8201548152505081526020019060010190611d22565b50505050905090565b611fe8613bb2565b73ffffffffffffffffffffffffffffffffffffffff16612006611aec565b73ffffffffffffffffffffffffffffffffffffffff161461205c576040517f08c379a000000000000000000000000000000000000000000000000000000000815260040161205390614811565b60405180910390fd5b8060078054905081106120a4576040517f08c379a000000000000000000000000000000000000000000000000000000000815260040161209b906147f1565b60405180910390fd5b600260068111156120de577f4e487b7100000000000000000000000000000000000000000000000000000000600052602160045260246000fd5b60078381548110612118577f4e487b7100000000000000000000000000000000000000000000000000000000600052603260045260246000fd5b90600052602060002090600b020160030160009054906101000a900460ff16600681111561216f577f4e487b7100000000000000000000000000000000000000000000000000000000600052602160045260246000fd5b1461217957600080fd5b813373ffffffffffffffffffffffffffffffffffffffff167ff4fa07004d6cb1809067ed6f44f92c92ab9e60126e9b470ca4bc7cf9c10654b760405160405180910390a36003600783815481106121f9577f4e487b7100000000000000000000000000000000000000000000000000000000600052603260045260246000fd5b90600052602060002090600b020160030160006101000a81548160ff02191690836006811115612252577f4e487b7100000000000000000000000000000000000000000000000000000000600052602160045260246000fd5b02179055505050565b6009602052816000526040600020818154811061227757600080fd5b9060005260206000209060030201600091509150508060000160009054906101000a900473ffffffffffffffffffffffffffffffffffffffff16908060000160149054906101000a900460ff16908060010154908060020154905084565b606060086000838152602001908152602001600020805480602002602001604051908101604052809291908181526020016000905b8282101561242d57838290600052602060002090600402016040518060800160405290816000820160009054906101000a900473ffffffffffffffffffffffffffffffffffffffff1673ffffffffffffffffffffffffffffffffffffffff1673ffffffffffffffffffffffffffffffffffffffff16815260200160018201548152602001600282015481526020016003820160009054906101000a900460ff1660048111156123e2577f4e487b7100000000000000000000000000000000000000000000000000000000600052602160045260246000fd5b600481111561241a577f4e487b7100000000000000000000000000000000000000000000000000000000600052602160045260246000fd5b815250508152602001906001019061230a565b505050509050919050565b612440613bb2565b73ffffffffffffffffffffffffffffffffffffffff1661245e611aec565b73ffffffffffffffffffffffffffffffffffffffff16146124b4576040517f08c379a00000000000000000000000000000000000000000000000000000000081526004016124ab90614811565b60405180910390fd5b8160078054905081106124fc576040517f08c379a00000000000000000000000000000000000000000000000000000000081526004016124f3906147f1565b60405180910390fd5b60036006811115612536577f4e487b7100000000000000000000000000000000000000000000000000000000600052602160045260246000fd5b60078481548110612570577f4e487b7100000000000000000000000000000000000000000000000000000000600052603260045260246000fd5b90600052602060002090600b020160030160009054906101000a900460ff1660068111156125c7577f4e487b7100000000000000000000000000000000000000000000000000000000600052602160045260246000fd5b14612607576040517f08c379a00000000000000000000000000000000000000000000000000000000081526004016125fe906147b1565b60405180910390fd5b8160078481548110612642577f4e487b7100000000000000000000000000000000000000000000000000000000600052603260045260246000fd5b90600052602060002090600b020160030160016101000a81548160ff0219169083600481111561269b577f4e487b7100000000000000000000000000000000000000000000000000000000600052602160045260246000fd5b02179055506004600784815481106126dc577f4e487b7100000000000000000000000000000000000000000000000000000000600052603260045260246000fd5b90600052602060002090600b020160030160006101000a81548160ff02191690836006811115612735577f4e487b7100000000000000000000000000000000000000000000000000000000600052602160045260246000fd5b0217905550612743836128cd565b505050565b600080600080600060096000888152602001908152602001600020868154811061279b577f4e487b7100000000000000000000000000000000000000000000000000000000600052603260045260246000fd5b90600052602060002090600302016040518060800160405290816000820160009054906101000a900473ffffffffffffffffffffffffffffffffffffffff1673ffffffffffffffffffffffffffffffffffffffff1673ffffffffffffffffffffffffffffffffffffffff1681526020016000820160149054906101000a900460ff166002811115612855577f4e487b7100000000000000000000000000000000000000000000000000000000600052602160045260246000fd5b600281111561288d577f4e487b7100000000000000000000000000000000000000000000000000000000600052602160045260246000fd5b8152602001600182015481526020016002820154815250509050806000015181602001518260400151836060015194509450945094505092959194509250565b6128d5613bb2565b73ffffffffffffffffffffffffffffffffffffffff166128f3611aec565b73ffffffffffffffffffffffffffffffffffffffff1614612949576040517f08c379a000000000000000000000000000000000000000000000000000000000815260040161294090614811565b60405180910390fd5b806007805490508110612991576040517f08c379a0000000000000000000000000000000000000000000000000000000008152600401612988906147f1565b60405180910390fd5b600460068111156129cb577f4e487b7100000000000000000000000000000000000000000000000000000000600052602160045260246000fd5b60078381548110612a05577f4e487b7100000000000000000000000000000000000000000000000000000000600052603260045260246000fd5b90600052602060002090600b020160030160009054906101000a900460ff166006811115612a5c577f4e487b7100000000000000000000000000000000000000000000000000000000600052602160045260246000fd5b14612a6657600080fd5b600060078381548110612aa2577f4e487b7100000000000000000000000000000000000000000000000000000000600052603260045260246000fd5b90600052602060002090600b0201600a015460078481548110612aee577f4e487b7100000000000000000000000000000000000000000000000000000000600052603260045260246000fd5b90600052602060002090600b02016009015460078581548110612b3a577f4e487b7100000000000000000000000000000000000000000000000000000000600052603260045260246000fd5b90600052602060002090600b020160080154612b569190614af6565b612b609190614af6565b90506000612b85606460055484612b779190614b7d565b613c7e90919063ffffffff16565b90506000612baa606460065485612b9c9190614b7d565b613c7e90919063ffffffff16565b9050600081838560078981548110612beb577f4e487b7100000000000000000000000000000000000000000000000000000000600052603260045260246000fd5b90600052602060002090600b020160070154612c079190614af6565b612c119190614bd7565b612c1b9190614bd7565b905060008060078881548110612c5a577f4e487b7100000000000000000000000000000000000000000000000000000000600052603260045260246000fd5b90600052602060002090600b020160030160019054906101000a900460ff16905060016004811115612cb5577f4e487b7100000000000000000000000000000000000000000000000000000000600052602160045260246000fd5b816004811115612cee577f4e487b7100000000000000000000000000000000000000000000000000000000600052602160045260246000fd5b1480612d6a575060026004811115612d2f577f4e487b7100000000000000000000000000000000000000000000000000000000600052602160045260246000fd5b816004811115612d68577f4e487b7100000000000000000000000000000000000000000000000000000000600052602160045260246000fd5b145b80612de5575060036004811115612daa577f4e487b7100000000000000000000000000000000000000000000000000000000600052602160045260246000fd5b816004811115612de3577f4e487b7100000000000000000000000000000000000000000000000000000000600052602160045260246000fd5b145b156135035760005b600960008a815260200190815260200160002080549050811015613316576000600960008b81526020019081526020016000208281548110612e58577f4e487b7100000000000000000000000000000000000000000000000000000000600052603260045260246000fd5b9060005260206000209060030201905060006002811115612ea2577f4e487b7100000000000000000000000000000000000000000000000000000000600052602160045260246000fd5b8160000160149054906101000a900460ff166002811115612eec577f4e487b7100000000000000000000000000000000000000000000000000000000600052602160045260246000fd5b148015612f69575060016004811115612f2e577f4e487b7100000000000000000000000000000000000000000000000000000000600052602160045260246000fd5b836004811115612f67577f4e487b7100000000000000000000000000000000000000000000000000000000600052602160045260246000fd5b145b15612fe857612fdb60078b81548110612fab577f4e487b7100000000000000000000000000000000000000000000000000000000600052603260045260246000fd5b90600052602060002090600b020160080154826001015487612fcd9190614b7d565b613c7e90919063ffffffff16565b81600201819055506132f4565b60016002811115613022577f4e487b7100000000000000000000000000000000000000000000000000000000600052602160045260246000fd5b8160000160149054906101000a900460ff16600281111561306c577f4e487b7100000000000000000000000000000000000000000000000000000000600052602160045260246000fd5b1480156130e95750600260048111156130ae577f4e487b7100000000000000000000000000000000000000000000000000000000600052602160045260246000fd5b8360048111156130e7577f4e487b7100000000000000000000000000000000000000000000000000000000600052602160045260246000fd5b145b156131685761315b60078b8154811061312b577f4e487b7100000000000000000000000000000000000000000000000000000000600052603260045260246000fd5b90600052602060002090600b02016009015482600101548761314d9190614b7d565b613c7e90919063ffffffff16565b81600201819055506132f3565b6002808111156131a1577f4e487b7100000000000000000000000000000000000000000000000000000000600052602160045260246000fd5b8160000160149054906101000a900460ff1660028111156131eb577f4e487b7100000000000000000000000000000000000000000000000000000000600052602160045260246000fd5b14801561326857506003600481111561322d577f4e487b7100000000000000000000000000000000000000000000000000000000600052602160045260246000fd5b836004811115613266577f4e487b7100000000000000000000000000000000000000000000000000000000600052602160045260246000fd5b145b156132e7576132da60078b815481106132aa577f4e487b7100000000000000000000000000000000000000000000000000000000600052603260045260246000fd5b90600052602060002090600b0201600a01548260010154876132cc9190614b7d565b613c7e90919063ffffffff16565b81600201819055506132f2565b600081600201819055505b5b5b83806132ff90614da3565b94505050808061330e90614da3565b915050612ded565b508160078981548110613352577f4e487b7100000000000000000000000000000000000000000000000000000000600052603260045260246000fd5b90600052602060002090600b02016006018190555060005b600860008a815260200190815260200160002080549050811015613467576000600860008b815260200190815260200160002082815481106133d5577f4e487b7100000000000000000000000000000000000000000000000000000000600052603260045260246000fd5b9060005260206000209060040201905060078a8154811061341f577f4e487b7100000000000000000000000000000000000000000000000000000000600052603260045260246000fd5b90600052602060002090600b0201600701548160010154886134419190614b7d565b61344b9190614b4c565b816002018190555050808061345f90614da3565b91505061336a565b506005600789815481106134a4577f4e487b7100000000000000000000000000000000000000000000000000000000600052603260045260246000fd5b90600052602060002090600b020160030160006101000a81548160ff021916908360068111156134fd577f4e487b7100000000000000000000000000000000000000000000000000000000600052602160045260246000fd5b02179055505b5050505050505050565b806007805490508110613555576040517f08c379a000000000000000000000000000000000000000000000000000000000815260040161354c906147f1565b60405180910390fd5b6002600154141561359b576040517f08c379a000000000000000000000000000000000000000000000000000000000815260040161359290614891565b60405180910390fd5b6002600181905550600060068111156135dd577f4e487b7100000000000000000000000000000000000000000000000000000000600052602160045260246000fd5b60078381548110613617577f4e487b7100000000000000000000000000000000000000000000000000000000600052603260045260246000fd5b90600052602060002090600b020160030160009054906101000a900460ff16600681111561366e577f4e487b7100000000000000000000000000000000000000000000000000000000600052602160045260246000fd5b146136ae576040517f08c379a00000000000000000000000000000000000000000000000000000000081526004016136a590614851565b60405180910390fd5b60035434116136f2576040517f08c379a00000000000000000000000000000000000000000000000000000000081526004016136e990614831565b60405180910390fd5b60006007838154811061372e577f4e487b7100000000000000000000000000000000000000000000000000000000600052603260045260246000fd5b90600052602060002090600b02016004015490506002548110156139be576008600084815260200190815260200160002060405180608001604052803373ffffffffffffffffffffffffffffffffffffffff168152602001348152602001600081526020016004808111156137cc577f4e487b7100000000000000000000000000000000000000000000000000000000600052602160045260246000fd5b815250908060018154018082558091505060019003906000526020600020906004020160009091909190915060008201518160000160006101000a81548173ffffffffffffffffffffffffffffffffffffffff021916908373ffffffffffffffffffffffffffffffffffffffff160217905550602082015181600101556040820151816002015560608201518160030160006101000a81548160ff021916908360048111156138a4577f4e487b7100000000000000000000000000000000000000000000000000000000600052602160045260246000fd5b0217905550505034600784815481106138e6577f4e487b7100000000000000000000000000000000000000000000000000000000600052603260045260246000fd5b90600052602060002090600b020160070160008282546139069190614af6565b9250508190555060078381548110613947577f4e487b7100000000000000000000000000000000000000000000000000000000600052603260045260246000fd5b90600052602060002090600b0201600401600081548092919061396990614da3565b91905055503373ffffffffffffffffffffffffffffffffffffffff16837f5025fe1daf298f8b6eef9cd4f5850e243477a8ab243c17569a6fdada945bc1d1346040516139b591906148b1565b60405180910390a35b600254600784815481106139fb577f4e487b7100000000000000000000000000000000000000000000000000000000600052603260045260246000fd5b90600052602060002090600b0201600401541415613aae57600260078481548110613a4f577f4e487b7100000000000000000000000000000000000000000000000000000000600052603260045260246000fd5b90600052602060002090600b020160030160006101000a81548160ff02191690836006811115613aa8577f4e487b7100000000000000000000000000000000000000000000000000000000600052602160045260246000fd5b02179055505b50600180819055505050565b613ac2613bb2565b73ffffffffffffffffffffffffffffffffffffffff16613ae0611aec565b73ffffffffffffffffffffffffffffffffffffffff1614613b36576040517f08c379a0000000000000000000000000000000000000000000000000000000008152600401613b2d90614811565b60405180910390fd5b600073ffffffffffffffffffffffffffffffffffffffff168173ffffffffffffffffffffffffffffffffffffffff161415613ba6576040517f08c379a0000000000000000000000000000000000000000000000000000000008152600401613b9d90614791565b60405180910390fd5b613baf81613bba565b50565b600033905090565b60008060009054906101000a900473ffffffffffffffffffffffffffffffffffffffff169050816000806101000a81548173ffffffffffffffffffffffffffffffffffffffff021916908373ffffffffffffffffffffffffffffffffffffffff1602179055508173ffffffffffffffffffffffffffffffffffffffff168173ffffffffffffffffffffffffffffffffffffffff167f8be0079c531659141344cd1fd0a4f28419497f9722a3daafe3b4186f6b6457e060405160405180910390a35050565b60008183613c8c9190614b4c565b905092915050565b828054613ca090614d40565b90600052602060002090601f016020900481019282613cc25760008555613d09565b82601f10613cdb57805160ff1916838001178555613d09565b82800160010185558215613d09579182015b82811115613d08578251825591602001919060010190613ced565b5b509050613d169190613d1a565b5090565b5b80821115613d33576000816000905550600101613d1b565b5090565b6000613d4a613d45846149e2565b6149bd565b905082815260208101848484011115613d6257600080fd5b613d6d848285614cfe565b509392505050565b600081359050613d84816150be565b92915050565b600081359050613d99816150d5565b92915050565b600081359050613dae816150e5565b92915050565b600082601f830112613dc557600080fd5b8135613dd5848260208601613d37565b91505092915050565b600081359050613ded816150f5565b92915050565b600060208284031215613e0557600080fd5b6000613e1384828501613d75565b91505092915050565b60008060408385031215613e2f57600080fd5b600083013567ffffffffffffffff811115613e4957600080fd5b613e5585828601613db4565b925050602083013567ffffffffffffffff811115613e7257600080fd5b613e7e85828601613db4565b9150509250929050565b600060208284031215613e9a57600080fd5b6000613ea884828501613dde565b91505092915050565b60008060408385031215613ec457600080fd5b6000613ed285828601613dde565b9250506020613ee385828601613d8a565b9150509250929050565b60008060408385031215613f0057600080fd5b6000613f0e85828601613dde565b9250506020613f1f85828601613d9f565b9150509250929050565b60008060408385031215613f3c57600080fd5b6000613f4a85828601613dde565b9250506020613f5b85828601613dde565b9150509250929050565b6000613f718383614340565b905092915050565b6000613f85838361444b565b60808301905092915050565b6000613f9d83836144a0565b60808301905092915050565b613fb281614c92565b82525050565b613fc181614c1d565b82525050565b613fd081614c1d565b82525050565b613fdf81614c0b565b82525050565b6000613ff082614a43565b613ffa8185614a96565b93508360208202850161400c85614a13565b8060005b8581101561404857848403895281516140298582613f65565b945061403483614a6f565b925060208a01995050600181019050614010565b50829750879550505050505092915050565b600061406582614a4e565b61406f8185614aa7565b935061407a83614a23565b8060005b838110156140ab5781516140928882613f79565b975061409d83614a7c565b92505060018101905061407e565b5085935050505092915050565b60006140c382614a59565b6140cd8185614ab8565b93506140d883614a33565b8060005b838110156141095781516140f08882613f91565b97506140fb83614a89565b9250506001810190506140dc565b5085935050505092915050565b61411f81614ca4565b82525050565b61412e81614ca4565b82525050565b61413d81614cb6565b82525050565b61414c81614cb6565b82525050565b61415b81614cc8565b82525050565b61416a81614cc8565b82525050565b600061417b82614a64565b6141858185614ad4565b9350614195818560208601614d0d565b61419e81614ed7565b840191505092915050565b60006141b482614a64565b6141be8185614ae5565b93506141ce818560208601614d0d565b6141d781614ed7565b840191505092915050565b60006141ef602683614ae5565b91506141fa82614ee8565b604082019050919050565b6000614212600a83614ae5565b915061421d82614f37565b602082019050919050565b6000614235601783614ae5565b915061424082614f60565b602082019050919050565b6000614258601283614ae5565b915061426382614f89565b602082019050919050565b600061427b602083614ae5565b915061428682614fb2565b602082019050919050565b600061429e600683614ae5565b91506142a982614fdb565b602082019050919050565b60006142c1600683614ae5565b91506142cc82615004565b602082019050919050565b60006142e4600083614ac9565b91506142ef8261502d565b600082019050919050565b6000614307601783614ae5565b915061431282615030565b602082019050919050565b600061432a601f83614ae5565b915061433582615059565b602082019050919050565b60006101808301600083015161435960008601826144f5565b50602083015184820360208601526143718282614170565b9150506040830151848203604086015261438b8282614170565b91505060608301516143a06060860182614152565b5060808301516143b36080860182614134565b5060a08301516143c660a08601826144f5565b5060c08301516143d960c08601826144f5565b5060e08301516143ec60e08601826144f5565b506101008301516144016101008601826144f5565b506101208301516144166101208601826144f5565b5061014083015161442b6101408601826144f5565b506101608301516144406101608601826144f5565b508091505092915050565b6080820160008201516144616000850182613fb8565b5060208201516144746020850182614116565b50604082015161448760408501826144f5565b50606082015161449a60608501826144f5565b50505050565b6080820160008201516144b66000850182613fb8565b5060208201516144c960208501826144f5565b5060408201516144dc60408501826144f5565b5060608201516144ef6060850182614134565b50505050565b6144fe81614c88565b82525050565b61450d81614c88565b82525050565b600061451e826142d7565b9150819050919050565b600060208201905061453d6000830184613fd6565b92915050565b60006080820190506145586000830187613fc7565b6145656020830186614125565b6145726040830185614504565b61457f6060830184614504565b95945050505050565b600060408201905061459d6000830185613fa9565b6145aa6020830184614504565b9392505050565b60006080820190506145c66000830187613fc7565b6145d36020830186614504565b6145e06040830185614504565b6145ed6060830184614143565b95945050505050565b600060808201905061460b6000830187613fd6565b6146186020830186614125565b6146256040830185614504565b6146326060830184614504565b95945050505050565b600060208201905081810360008301526146558184613fe5565b905092915050565b60006020820190508181036000830152614677818461405a565b905092915050565b6000602082019050818103600083015261469981846140b8565b905092915050565b600060408201905081810360008301526146bb81856141a9565b905081810360208301526146cf81846141a9565b90509392505050565b60006101608201905081810360008301526146f3818e6141a9565b90508181036020830152614707818d6141a9565b9050614716604083018c614161565b614723606083018b614143565b614730608083018a614504565b61473d60a0830189614504565b61474a60c0830188614504565b61475760e0830187614504565b614765610100830186614504565b614773610120830185614504565b614781610140830184614504565b9c9b505050505050505050505050565b600060208201905081810360008301526147aa816141e2565b9050919050565b600060208201905081810360008301526147ca81614205565b9050919050565b600060208201905081810360008301526147ea81614228565b9050919050565b6000602082019050818103600083015261480a8161424b565b9050919050565b6000602082019050818103600083015261482a8161426e565b9050919050565b6000602082019050818103600083015261484a81614291565b9050919050565b6000602082019050818103600083015261486a816142b4565b9050919050565b6000602082019050818103600083015261488a816142fa565b9050919050565b600060208201905081810360008301526148aa8161431d565b9050919050565b60006020820190506148c66000830184614504565b92915050565b6000610180820190506148e2600083018f614504565b81810360208301526148f4818e6141a9565b90508181036040830152614908818d6141a9565b9050614917606083018c614161565b614924608083018b614143565b61493160a083018a614504565b61493e60c0830189614504565b61494b60e0830188614504565b614959610100830187614504565b614967610120830186614504565b614975610140830185614504565b614983610160830184614504565b9d9c50505050505050505050505050565b60006040820190506149a96000830185614504565b6149b66020830184614504565b9392505050565b60006149c76149d8565b90506149d38282614d72565b919050565b6000604051905090565b600067ffffffffffffffff8211156149fd576149fc614ea8565b5b614a0682614ed7565b9050602081019050919050565b6000819050602082019050919050565b6000819050602082019050919050565b6000819050602082019050919050565b600081519050919050565b600081519050919050565b600081519050919050565b600081519050919050565b6000602082019050919050565b6000602082019050919050565b6000602082019050919050565b600082825260208201905092915050565b600082825260208201905092915050565b600082825260208201905092915050565b600081905092915050565b600082825260208201905092915050565b600082825260208201905092915050565b6000614b0182614c88565b9150614b0c83614c88565b9250827fffffffffffffffffffffffffffffffffffffffffffffffffffffffffffffffff03821115614b4157614b40614dec565b5b828201905092915050565b6000614b5782614c88565b9150614b6283614c88565b925082614b7257614b71614e1b565b5b828204905092915050565b6000614b8882614c88565b9150614b9383614c88565b9250817fffffffffffffffffffffffffffffffffffffffffffffffffffffffffffffffff0483118215151615614bcc57614bcb614dec565b5b828202905092915050565b6000614be282614c88565b9150614bed83614c88565b925082821015614c0057614bff614dec565b5b828203905092915050565b6000614c1682614c68565b9050919050565b6000614c2882614c68565b9050919050565b6000819050614c3d82615082565b919050565b6000819050614c5082615096565b919050565b6000819050614c63826150aa565b919050565b600073ffffffffffffffffffffffffffffffffffffffff82169050919050565b6000819050919050565b6000614c9d82614cda565b9050919050565b6000614caf82614c2f565b9050919050565b6000614cc182614c42565b9050919050565b6000614cd382614c55565b9050919050565b6000614ce582614cec565b9050919050565b6000614cf782614c68565b9050919050565b82818337600083830152505050565b60005b83811015614d2b578082015181840152602081019050614d10565b83811115614d3a576000848401525b50505050565b60006002820490506001821680614d5857607f821691505b60208210811415614d6c57614d6b614e79565b5b50919050565b614d7b82614ed7565b810181811067ffffffffffffffff82111715614d9a57614d99614ea8565b5b80604052505050565b6000614dae82614c88565b91507fffffffffffffffffffffffffffffffffffffffffffffffffffffffffffffffff821415614de157614de0614dec565b5b600182019050919050565b7f4e487b7100000000000000000000000000000000000000000000000000000000600052601160045260246000fd5b7f4e487b7100000000000000000000000000000000000000000000000000000000600052601260045260246000fd5b7f4e487b7100000000000000000000000000000000000000000000000000000000600052602160045260246000fd5b7f4e487b7100000000000000000000000000000000000000000000000000000000600052602260045260246000fd5b7f4e487b7100000000000000000000000000000000000000000000000000000000600052604160045260246000fd5b6000601f19601f8301169050919050565b7f4f776e61626c653a206e6577206f776e657220697320746865207a65726f206160008201527f6464726573730000000000000000000000000000000000000000000000000000602082015250565b7f6e6f7420636c6f73656400000000000000000000000000000000000000000000600082015250565b7f4661696c656420746f2073656e64204574686572203120000000000000000000600082015250565b7f62657420646f6573206e6f742065786973740000000000000000000000000000600082015250565b7f4f776e61626c653a2063616c6c6572206973206e6f7420746865206f776e6572600082015250565b7f74656d6120320000000000000000000000000000000000000000000000000000600082015250565b7f74656d6120310000000000000000000000000000000000000000000000000000600082015250565b50565b7f4661696c656420746f2073656e64204574686572203220000000000000000000600082015250565b7f5265656e7472616e637947756172643a207265656e7472616e742063616c6c00600082015250565b6003811061509357615092614e4a565b5b50565b600581106150a7576150a6614e4a565b5b50565b600781106150bb576150ba614e4a565b5b50565b6150c781614c0b565b81146150d257600080fd5b50565b600381106150e257600080fd5b50565b600581106150f257600080fd5b50565b6150fe81614c88565b811461510957600080fd5b5056fea2646970667358221220c0772ba06233d2494046d3160a2af2cf747f86eab696aa9a01ef68ed9fc5bff664736f6c63430008040033",
  "immutableReferences": {},
  "source": "// SPDX-License-Identifier: MIT\npragma solidity 0.8.4;\n\n/// @title SmartBet\n/// @author J.Gabriel Delichotti\n/**  @notice This contract allows the registration of soccer bets so that bettors can win the jackpot generated by the different bets.\n    In addition, the contract has Sponsors that provide liquidity at the beginning of the bet to attract bettors. In return, they will charge a commission for each bet.\n    Initially this commission is defined in the contract.*/\n/** @dev The application allows the owner of the smart contract:\n - to register bets, \n - Close the event to stop receiving money from bettors, \n - Define the final result of the bet (in the future it would be necessary to develop an oracle).\n - Trigger the payment to Sponsors and Bettors (who won).*/\n\nimport \"@openzeppelin/contracts/access/Ownable.sol\";\nimport \"@openzeppelin/contracts/utils/math/SafeMath.sol\";\n//import \"hardhat/console.sol\";\nimport \"@openzeppelin/contracts/security/ReentrancyGuard.sol\";\n\ncontract SmartBet is Ownable,ReentrancyGuard{\n\n    using SafeMath for uint;\n    \n    ///// EVENTS /////\n    event Deposit(address indexed sender, uint amount, uint balance);\n    event CreateBet (uint indexed betId, string LocalTeam, string VisitorTeam,address indexed owner);\n    event AddBetSponsor(uint indexed betId, address indexed sponsor, uint amount);\n    event AddBetGambler(uint indexed betId, address indexed gambler, uint amount);\n    event OpenBet (address indexed owner, uint indexed betIndex);\n    event CloseBet (address indexed owner, uint indexed betIndex);\n    event CountingVotesBet (address indexed owner, uint indexed betIndex);\n    event ResultsReadyBet (address indexed owner, uint indexed betIndex);\n    event ReadyForPaymentBet (address indexed owner, uint indexed betIndex);\n    event FinishedBet (address indexed owner, uint indexed betIndex);\n    event GamblerPayment (address gamblerAddress, uint price);\n    event SponsorPayment (address sponsorAddress, uint price);\n    \n    \n    ///// ENUM /////\n    enum BetStates {BetFunding, Created, Open, Closed, ResultsReady, ReadyForPayment, Finished}\n    enum BetOptions {LocalWin, VistorWin, Drawn}\n    enum BetResults {NotStarted, LocalWin, VistorWin, Drawn, Unknown}\n\n    ///// GENERALE PARAMETERS\n    /// @dev These data is fixex in the contract. \n    uint NUM_SPONSOR_REQUIRED = 2;\n    uint MIN_SPONSOR_AMOUNT = 0.00000005 ether;\n    uint MIN_BET_AMOUNT = 0.00000001 ether;\n\n    ///// STORAGE VARIABLES /////\n    /// @dev These values represent the fees that the Sponsors and the owner of the app will charge for each bet they place.\n    uint SponsorFee = 5;\n    uint ownerFee = 5;\n\n\n    /** @dev The structure contains all the necessary data to register a new bet.\n        It also adds up the amounts entered for each possible outcome as well as the amount contributed by the Sponsors.\n        This structure is then entered into a mapping (betBook).*/\n    struct BetDefinition {\n        uint betId;\n        string localTeam;\n        string visitorTeam;\n        BetStates state;   \n        BetResults results;     \n        uint sponsorsCount;\n        uint gamblersCount;\n        uint winnersCount;\n        uint initialAmount;       // Amount inyected by the Sponsor\n        uint localWiningAmount;   // Local Winning Price (aprox)\n        uint visitorWiningAmount; // Visitor Winning Price (aprox)\n        uint drawnAmount;         // Draw Winning Price (aprox)\n    }    \n    BetDefinition[] public betBook;\n\n    /** @dev The structure defines the information necessary to include a Sponsor in a bet.\n        - SponsorAccount: Represents the address where the fee will be paid.\n        - SponsorAmount: It is the money that each Sponsor contribute at the beginning of the bet to attract gamblers.\n        - SponsorFeeAmount: It is the money paid to each Sponsor at the end of the bet.\n        For each bet (betId) an array of Sponsors is created and added to a mapping (betSponsors). The index of the mapping is the ID of the bet.\n     */\n    struct Sponsor {\n        address payable sponsorAccount;\n        uint sponsorAmount;\n        uint sponsorFeeAmount;\n        BetResults result;        \n    }   \n    mapping (uint => Sponsor[]) public betSponsors;\n\n\n    /***  @dev The structure defines the information necessary to include a Gambler in a bet.\n    - GamblerAccount: Represents the gambler's address. If the chosen result is finally given, it will be the address where he/she will collect the prize.\n    - betOption: It is the result for which the gambler entered money. It is the result that he expects to happen.\n    - betAmount: This is the amount of money placed on the bet.\n    - betRewardPayment: It is the amount that the gambler ends up collecting at the end of the bet. Initially it starts at zero.\n    For each bet (betId) an array of gambler is created and added to a mapping (betGamblers). The index of the mapping is the ID of the bet.*/\n    \n    struct Gambler {\n        address payable gamblerAccount;\n        BetOptions betOption;\n        uint betAmount;\n        uint betRewardPayment;\n    }\n    mapping (uint => Gambler[]) public betGamblers;\n\n\n    receive() external payable {\n        emit Deposit(msg.sender, msg.value, address(this).balance);\n    }\n\n\n    //////////// MODIFIERS ////////////////////////\n    /// @dev This modifier is used in most functions to ensure that you are trying to trade a bet that actually exists.\n    /// @param _betIndex It's the index of the bet\n    modifier betExists(uint _betIndex) {\n        require(_betIndex < betBook.length, \"bet does not exist\");\n        _;\n    }\n\n\n    /// @author J.Gabriel Delichotti\n    /// @notice Allows you to register new bets. This action can only be performed by the owner of the contract. \n    /**  @dev Create a bet by defining the teams participating in the match and initiating the internal variables of the BetDefinition structure.\n        This structure is then aggregated into an array of bets (betBook).\n        This action can only be done by the contract's owner (Using the openZeppelin library - Ownable*/\n    /// @param _localTeam Defines home team\n    /// @param _visitorTeam Defines the visiting team    \n    /// @return betId is the ID created for the new bet\n    function createBet(string memory _localTeam,string memory _visitorTeam) public onlyOwner returns (uint betId) {        \n        uint betIndex = betBook.length;\n        betBook.push(\n            BetDefinition({\n                betId:betIndex,\n                localTeam: _localTeam,\n                visitorTeam: _visitorTeam,\n                state: BetStates.BetFunding,\n                results: BetResults.NotStarted,       \n                sponsorsCount: 0,\n                gamblersCount:0,\n                winnersCount:0,                          \n                initialAmount:0,\n                localWiningAmount:0,\n                visitorWiningAmount:0,\n                drawnAmount:0\n            })\n        );\n        emit CreateBet(betIndex,_localTeam,_visitorTeam,msg.sender);\n\n        return betIndex;\n    }\n\n    /// @author J.Gabriel Delichotti\n    /** @notice Once the bet is placed Sponsors can start carrying money to attract bettors.\n        Once the required amount of Sponsors is reached, the bet automatically goes to \"Open\" status.*/\n    /** @dev Before adding Sponsors the application must validate that:\n        - The bet exists (betExists)\n        - The bet is in \"BetFunding\" status.\n        - Validate that the amount to be contributed by the Sponsor is greater than the amount defined in the contract. \n        In addition, the validation to avoid the Reentry Attack is added.*/\n    /// @param _betIndex is the Bet Identificator (ID)\n    function addBetSponsor(uint _betIndex) public payable betExists(_betIndex) nonReentrant{        \n        require(betBook[_betIndex].state == BetStates.BetFunding,\"tema 1\");\n        require(msg.value > MIN_SPONSOR_AMOUNT, \"tema 2\");\n\n        uint _currentSponsors = betBook[_betIndex].sponsorsCount;        \n\n    /** @dev The Sponsor structure is completed as long as the previously defined criteria are met.\n        In addition, the amount contributed by all sponsors is added to the betting structure (betBook) in the \"initialAmount\" field.*/\n        if(_currentSponsors < NUM_SPONSOR_REQUIRED){                        \n            betSponsors[_betIndex].push(\n                Sponsor({\n                    sponsorAccount:payable(msg.sender),\n                    sponsorAmount: msg.value,\n                    sponsorFeeAmount: 0,\n                    result: BetResults.Unknown})\n            );\n            betBook[_betIndex].initialAmount += msg.value;\n            betBook[_betIndex].sponsorsCount ++;\n\n        /// @dev An event is issued to indicate that the Sponsor was added to a bet.\n            emit AddBetSponsor(_betIndex,msg.sender,msg.value);\n            \n            \n        }\n        /// Once the last Sponsor is added, the Bet goest to the \"Open\" state.            \n        if(betBook[_betIndex].sponsorsCount == NUM_SPONSOR_REQUIRED){\n            // Si se llego al minimo de sponsor se considera que ya no pueden entrar mas sponsor y esta lista para abrirse!\n            betBook[_betIndex].state = BetStates.Open;\n\n        }           \n        \n    }\n\n    \n    /// @author J.Gabriel Delichotti\n    /// @notice Once the bet is in \"Open\" states, bettors can place their bets. \n    /** @dev The application validates that:\n        - The bet exists\n        - The bet is in the \"Open\" states\n        - The amount to add is greater than the minimum amount allowed (MIN_BET_AMOUNT\").\n        - The result entered as expected is valid.*/\n    /// @param _betIndex is the Bet Identificator (ID)\n    /// @param _gamblerBetoption is the result expected by the Gambler    \n    function addGamblerBet(uint _betIndex, BetOptions _gamblerBetoption) public payable betExists(_betIndex) nonReentrant {\n        require(betBook[_betIndex].state == BetStates.Open);\n        require(msg.value > MIN_BET_AMOUNT);\n        require(  _gamblerBetoption == BetOptions.LocalWin \n                ||_gamblerBetoption == BetOptions.VistorWin \n                ||_gamblerBetoption == BetOptions.Drawn);\n\n        /// @dev Adds the gamblers into an array. The this array is incluede in the mapping (betGambler) where its index is the BetId\n        betGamblers[_betIndex].push(\n            Gambler({\n               gamblerAccount: payable(msg.sender),\n               betOption: _gamblerBetoption,\n               betAmount: msg.value,\n               betRewardPayment: 0})\n        );\n\n        /// @dev Depending on the results selected by the Gambler, the bet amount is added to the betDefinition structure.\n        if(_gamblerBetoption == BetOptions.LocalWin){\n            betBook[_betIndex].localWiningAmount += msg.value;\n        } else if (_gamblerBetoption == BetOptions.VistorWin){\n            betBook[_betIndex].visitorWiningAmount += msg.value;\n        } else if (_gamblerBetoption == BetOptions.Drawn){\n            betBook[_betIndex].drawnAmount += msg.value;\n        } else {\n            betBook[_betIndex].initialAmount += msg.value;\n        }\n\n\n        betBook[_betIndex].gamblersCount ++;\n        emit AddBetGambler(_betIndex,msg.sender,msg.value);\n\n\n    }\n\n    \n    /// @author J.Gabriel Delichotti\n    /** @notice This function is triggered by the Owner of the contract when he decides that no more bets are accepted.\n    In the future, this status change should be generated when a certain date and time that was defined when the bet was placed is reached.*/\n    /// @dev This event, on this version, is triggered by the contract's owner. It validates that the Bet is in the \"Open\" state before closing.\n    /// @param _betIndex is the Bet Identificator (ID)\n    function closeBet(uint _betIndex) public onlyOwner betExists(_betIndex){\n        // This function modifies the Bet status to CLOSE. Initially the Owner of the contract can trigger this action.\n        require(betBook[_betIndex].state == BetStates.Open);\n        emit CloseBet(msg.sender,_betIndex);\n        betBook[_betIndex].state = BetStates.Closed;\n    }\n\n\n    /// @author J.Gabriel Delichotti\n    /** @notice This function is where the outcome of the bet is defined. In this version it is the owner of the contract who enters the outcome. \n        In future versions it would be necessary to connect an oracle or to set up a consensus scheme. */\n    /** @dev This function validates that the bet exists and that it is in the \"Closed\" state.\n        Then it updates the variable \"result\" with the value provided by the owner.*/\n    /// @param _betIndex is the Bet Identificator (ID)\n    /// @param resultado is the result defined by the owner.\n    function defineResult(uint _betIndex, BetResults resultado) public onlyOwner betExists(_betIndex){\n        // This function modifies the Bet status to CLOSE. Initially the Owner of the contract can trigger this action.\n        require(betBook[_betIndex].state == BetStates.Closed,\"not closed\");\n        betBook[_betIndex].results = resultado;\n        //console.log(uint(betBook[_betIndex].results));\n        betBook[_betIndex].state = BetStates.ResultsReady;\n        calcPayments(_betIndex);\n        \n    }\n\n    /// @author J.Gabriel Delichotti\n    /// @notice This function is in charge of doing the math to define the commission that the sponsors, the owner of the application and the bettors get.\n    /** @dev For these calculations we used the openZeppelin release to avoid overfloating and underfloating errors.\n        This function is in charge of doing the math to define the commission that the sponsors, the owner of the application and the bettors get.\n        This action can only be triggered by the owner of the contract.*/\n    /// @param _betIndex is the Bet Identificator (ID)\n    function calcPayments(uint _betIndex) public  onlyOwner betExists(_betIndex) {\n        require(betBook[_betIndex].state == BetStates.ResultsReady);\n\n        ///@dev TotalAmount sums up the amount deposited by all gamblers.\n        uint totalAmount = betBook[_betIndex].localWiningAmount \n                         + betBook[_betIndex].visitorWiningAmount \n                         + betBook[_betIndex].drawnAmount;\n\n        ///@dev The fee amount is calculated by first multiplying and then dividing by 100 so as not to lose precision in the calculation.\n        uint SponsorFeeAmount = (totalAmount * SponsorFee).div(100);\n        uint OwnerFeeAmount = (totalAmount* ownerFee).div(100);\n        uint gamblerReward = betBook[_betIndex].initialAmount + totalAmount - SponsorFeeAmount - OwnerFeeAmount;\n        uint winners = 0;\n\n        BetResults results = betBook[_betIndex].results;\n        \n\n        if (results == BetResults.LocalWin || results == BetResults.VistorWin ||results == BetResults.Drawn ){            \n            /// @dev This process calculates the winnings of each bettor based on the bet and outcome he/she has chosen.\n            for (uint i=0;i < betGamblers[_betIndex].length; i++ ){\n                Gambler storage _gambler = betGamblers[_betIndex][i];                \n                \n                if(_gambler.betOption == BetOptions.LocalWin && results == BetResults.LocalWin){                    \n                    _gambler.betRewardPayment = (gamblerReward * _gambler.betAmount).div(betBook[_betIndex].localWiningAmount);                     \n                } else \n                if (_gambler.betOption == BetOptions.VistorWin && results == BetResults.VistorWin){                    \n                    _gambler.betRewardPayment = (gamblerReward * _gambler.betAmount).div(betBook[_betIndex].visitorWiningAmount); \n                }else \n                if (_gambler.betOption == BetOptions.Drawn && results == BetResults.Drawn){                                        \n                    _gambler.betRewardPayment = (gamblerReward * _gambler.betAmount).div(betBook[_betIndex].drawnAmount);\n                } else {                                        \n                    _gambler.betRewardPayment = 0;\n                }\n                winners++;\n            }\n            betBook[_betIndex].winnersCount = winners;\n\n            /// @dev This process calculates the commission that each Sponsor gets according to the amount contributed.\n            for (uint i=0;i < betSponsors[_betIndex].length; i++ ){\n                Sponsor storage _sponsor = betSponsors[_betIndex][i];\n                _sponsor.sponsorFeeAmount = (SponsorFeeAmount*_sponsor.sponsorAmount)/betBook[_betIndex].initialAmount;\n            }            \n            /// @dev This bet is ready to release payments\n            betBook[_betIndex].state = BetStates.ReadyForPayment;            \n        }\n\n    }\n    \n\n    /// @author J.Gabriel Delichotti\n    /// @notice This function is similar to the CalPayment function but is separated from the previous one in order to have the possibility to evaluate potential payments before making them.\n    /** @dev payments are made using the \"call\" function instead of Transfer for security reasons. It also inherits the \"nonReentrant\" modifier from the OpenZeppelin library.\n        Finally it moves the bet to its final state: Finished. \n        This action can only be triggered by the owner of the contract.*/\n    /// @param _betIndex is the Bet Identificator (ID)\n    function releasePayments(uint _betIndex) public onlyOwner betExists(_betIndex) nonReentrant{\n        require(betBook[_betIndex].state == BetStates.ReadyForPayment);\n     \n        for (uint i=0 ; i < betGamblers[_betIndex].length ; i++){\n            Gambler storage _gambler = betGamblers[_betIndex][i];\n             (bool sent, ) = _gambler.gamblerAccount.call{value: _gambler.betRewardPayment}(\"\");            \n            require(sent, \"Failed to send Ether 1 \");            \n            emit GamblerPayment(_gambler.gamblerAccount,_gambler.betRewardPayment);\n        }\n\n        for (uint i=0 ; i < betSponsors[_betIndex].length ; i++){\n            Sponsor storage _sponsor = betSponsors[_betIndex][i];\n             (bool sent, ) = _sponsor.sponsorAccount.call{value: _sponsor.sponsorFeeAmount}(\"\");            \n            require(sent, \"Failed to send Ether 2 \");            \n            emit SponsorPayment(_sponsor.sponsorAccount,_sponsor.sponsorFeeAmount);\n        }        \n        betBook[_betIndex].state = BetStates.Finished;\n    }\n\n    //////// UTILS FUNCTION ////////\n    /** @author J.Gabriel Delichotti*/\n    /// @notice This function is used in the Dapp to retrieve all the bets uploaded in the system\n    function getAvailableBets() public view returns (BetDefinition[] memory availableBets){ \n        return betBook;\n    }\n\n\n    /** @author J.Gabriel Delichotti*/\n    /// @notice This function is used in the Dapp to list the gambler of an specific bet\n    function getGamblers(uint _betIndex) public view returns (Gambler[] memory gamblers) {\n        return betGamblers[_betIndex];        \n    }\n\n    /** @author J.Gabriel Delichotti*/\n    /// @notice This function is used in the Dapp to list the Sponsors of an specific bet\n    function getSponsors(uint _betIndex) public view \n        returns ( Sponsor[] memory sponsor){\n        return betSponsors[_betIndex];    \n    }\n\n    /** @author J.Gabriel Delichotti*/\n    /// @notice This function is used for Testing purposes\n    function getBetSummary(uint betIndex) public view \n        returns (string memory local, string memory visitor, \n                BetStates state, BetResults results,\n                uint sponsorsCount, uint gamblersCount,uint winnersCount,                \n                uint initialAmount, uint localWiningAmount ,uint visitorWiningAmount, uint drawnAmount) \n    {\n        BetDefinition storage betSummary = betBook[betIndex];\n\n        return (\n            betSummary.localTeam,\n            betSummary.visitorTeam,\n            betSummary.state,\n            betSummary.results,\n            betSummary.sponsorsCount,\n            betSummary.gamblersCount,\n            betSummary.winnersCount,            \n            betSummary.initialAmount,\n            betSummary.localWiningAmount,\n            betSummary.visitorWiningAmount,\n            betSummary.drawnAmount\n            \n        );\n    }\n    /** @author J.Gabriel Delichotti*/\n    /// @notice This function is used for Testing purposes\n    function getSponsor(uint _betIndex,uint _sponsorId) public view \n        returns ( address sponsorAccount){\n        return betSponsors[_betIndex][_sponsorId].sponsorAccount;    \n    }\n\n    /** @author J.Gabriel Delichotti*/\n    /// @notice This function is used for Testing purposes\n    function getGambler(uint _betIndex,uint _gamblerId) public view \n        returns (address gamblerAccount, BetOptions betOption,uint betAmount,uint betRewardPayment) {\n        \n        Gambler memory gambleSummary = betGamblers[_betIndex][_gamblerId];\n        return (\n            gambleSummary.gamblerAccount,\n            gambleSummary.betOption,\n            gambleSummary.betAmount,\n            gambleSummary.betRewardPayment\n        );\n    }\n\n\n}",
  "sourcePath": "/home/jdelichotti/consensys/blockchain-developer-bootcamp-final-project/contracts/SmartBet.sol",
  "compiler": {
    "name": "solc",
    "version": "0.8.4+commit.c7e474f2.Emscripten.clang"
  },
  "schemaVersion": "3.4.3",
  "updatedAt": "2021-11-27T17:05:30.160Z",
  "networkType": "ethereum",
  "devdoc": {
    "kind": "dev",
    "methods": {
      "addBetSponsor(uint256)": {
        "params": {
          "_betIndex": "is the Bet Identificator (ID)"
        }
      },
      "addGamblerBet(uint256,uint8)": {
        "params": {
          "_betIndex": "is the Bet Identificator (ID)",
          "_gamblerBetoption": "is the result expected by the Gambler    "
        }
      },
      "calcPayments(uint256)": {
        "params": {
          "_betIndex": "is the Bet Identificator (ID)"
        }
      },
      "closeBet(uint256)": {
        "details": "This event, on this version, is triggered by the contract's owner. It validates that the Bet is in the \"Open\" state before closing.",
        "params": {
          "_betIndex": "is the Bet Identificator (ID)"
        }
      },
      "createBet(string,string)": {
        "params": {
          "_localTeam": "Defines home team",
          "_visitorTeam": "Defines the visiting team    "
        },
        "returns": {
          "betId": "is the ID created for the new bet"
        }
      },
      "defineResult(uint256,uint8)": {
        "params": {
          "_betIndex": "is the Bet Identificator (ID)",
          "resultado": "is the result defined by the owner."
        }
      },
      "owner()": {
        "details": "Returns the address of the current owner."
      },
      "releasePayments(uint256)": {
        "params": {
          "_betIndex": "is the Bet Identificator (ID)"
        }
      },
      "renounceOwnership()": {
        "details": "Leaves the contract without owner. It will not be possible to call `onlyOwner` functions anymore. Can only be called by the current owner. NOTE: Renouncing ownership will leave the contract without an owner, thereby removing any functionality that is only available to the owner."
      },
      "transferOwnership(address)": {
        "details": "Transfers ownership of the contract to a new account (`newOwner`). Can only be called by the current owner."
      }
    },
    "stateVariables": {
      "NUM_SPONSOR_REQUIRED": {
        "details": "These data is fixex in the contract. "
      },
      "SponsorFee": {
        "details": "These values represent the fees that the Sponsors and the owner of the app will charge for each bet they place."
      }
    },
    "version": 1
  },
  "userdoc": {
    "kind": "user",
    "methods": {
      "getAvailableBets()": {
        "notice": "This function is used in the Dapp to retrieve all the bets uploaded in the system"
      },
      "getBetSummary(uint256)": {
        "notice": "This function is used for Testing purposes"
      },
      "getGambler(uint256,uint256)": {
        "notice": "This function is used for Testing purposes"
      },
      "getGamblers(uint256)": {
        "notice": "This function is used in the Dapp to list the gambler of an specific bet"
      },
      "getSponsor(uint256,uint256)": {
        "notice": "This function is used for Testing purposes"
      },
      "getSponsors(uint256)": {
        "notice": "This function is used in the Dapp to list the Sponsors of an specific bet"
      }
    },
    "version": 1
  }
}